:020000040800F2
:10000000880400200101000825080008BF0300083B
:1000100021080008F9010008550B00080000000045
:100020000000000000000000000000003D09000882
:10003000FD0100080000000027080008290A000848
:100040001B0100081B0100081B0100081B01000820
:100050001B0100081B0100081B0100081B01000810
:100060001B0100081B0100081B0100081B01000800
:100070001B0100081B0100081B0100081B010008F0
:100080001B0100081B0100081B0100081B010008E0
:100090001B0100081B0100081B0100081B010008D0
:1000A0001B0100081B0100081B0100081B010008C0
:1000B0008D0A00081B0100081B0100081B01000835
:1000C0001B0100081B0100081B0100081B010008A0
:1000D0001B0100081B0100081B0100081B01000890
:1000E0001B0100081B0100081B010008DFF80CD0F1
:1000F00000F02EF80048004725130008880400206F
:100100000648804706480047FEE7FEE7FEE7FEE7B1
:10011000FEE7FEE7FEE7FEE7FEE7FEE72D0A000842
:10012000ED00000830B50B460146002020220124D6
:1001300009E021FA02F59D4205D303FA02F5491BB5
:1001400004FA02F52844151EA2F10102F1DC30BDCB
:10015000064C074D06E0E06840F0010394E8070014
:1001600098471034AC42F6D3FFF7C4FF5418000888
:100170007418000810B518480078184909688842B2
:1001800029D11748007817490968884223D10FE020
:100190001021154800F00FF94FF47A7000F0EAFED4
:1001A0001021114800F009F94FF47A7000F0E2FED6
:1001B0000E4801680068401E0C4A10600029E7D113
:1001C000074800780A490860034800780949086030
:1001D00005201146086010BD1C00002038000020DA
:1001E0001D000020340000200008014028000020ED
:1001F0002C0000203000002000BFFEE770472DE9F2
:10020000F04102460025002600200023002400279C
:1002100091F803C00CF00F0591F803C00CF0100C1E
:10022000BCF1000F03D091F802C04CEA050591F82B
:1002300000C0BCF1000F31D0146800202BE04FF05B
:10024000010C0CFA00F3B1F800C00CEA03069E4260
:1002500020D183004FF00F0C0CFA03F7BC4305FAD2
:1002600003FC4CEA040491F803C0BCF1280F06D14A
:100270004FF0010C0CFA00FCC2F814C00AE091F82F
:1002800003C0BCF1480F05D14FF0010C0CFA00FC83
:10029000C2F810C0401C0828D1D31460B1F800C0C7
:1002A000BCF1FF0F34DD546800202EE000F1080C93
:1002B0004FF0010808FA0CF3B1F800C00CEA03068D
:1002C0009E4221D183004FF00F0C0CFA03F7BC4380
:1002D00005FA03FC4CEA040491F803C0BCF1280FB2
:1002E00005D100F1080C08FA0CF8C2F8148091F856
:1002F00003C0BCF1480F07D100F1080C4FF0010812
:1003000008FA0CF8C2F81080401C0828CED35460BC
:10031000BDE8F081F0B50A46002300240021002545
:1003200000F00046B6F1004F02D11D4EF16901E028
:100330001B4E7168C0F3034583B200F44016B6F556
:10034000401F08D121F07061154E766826F0706666
:10035000134F7E6012E000F48016B6F5801F06D1C0
:10036000032606FA05F4A14341F0706106E0460D4C
:10037000360103FA06F6B14341F0706122B1460D31
:10038000360103FA06F6314300F00046B6F1004F9D
:1003900002D1034EF16101E0014E7160F0BD000039
:1003A000000001400246002093680B400BB1012081
:1003B00000E000207047416170470161704700BF55
:1003C000FEE721B1028842F48062028004E00288E4
:1003D0004FF6FF331A400280704770B50246002482
:1003E000002500230020958A138B1B0445EA030691
:1003F00026F07F4404EA01068E4201D1012000E08C
:10040000002070BD21B1028842F00102028004E0A8
:1004100002884FF6FE731A400280704721B10288AD
:1004200042F48072028004E002884FF6FF631A40B3
:100430000280704721B1028842F40072028004E019
:1004400002884FF6FF531A40028070470CB50246EF
:10045000002000230193009300920B0F019321F0E1
:100460007F41019B1BB1009B1433009303E0090CF7
:10047000009B18330093009B1B680B400BB10120BD
:1004800000E000200CBD00002DE9F04385B00446DB
:100490000D460026B1460427DFF8CC80A6884FF62B
:1004A000C0700640684600F0DFF9DDF808802F488C
:1004B000B8FBF0F01FFA80F946EA0906A68020880A
:1004C0004FF6FE710840208000262949286888429E
:1004D0000CD828684000B8FBF0F087B2042F00DA8F
:1004E00004273E4309F10100208427E0E8884BF609
:1004F000FF71884206D1286800EB4000B8FBF0F09D
:1005000087B209E0286800EBC00101EB0010B8FBDE
:10051000F0F087B247F48047C7F30B0008B947F003
:10052000010747F4004006434FF4967009FB00F0C2
:100530004FF47A7190FBF1F0401C2084A683208850
:1005400040F00100208026884FF6F5300640A8884C
:100550006989084306432680A889298908432081A0
:1005600005B0BDE8F083000000127A0040420F00A1
:10057000A08601000146088AC0B2704712B141F05E
:10058000010102E04FF6FE731940018270470182BB
:100590007047F8B507460D4614461E4601213846F9
:1005A00000F052F9ADF8004003208DF802008DF8FC
:1005B000036069462846FFF722FE21462846FFF7DA
:1005C000FCFEF8BD00B585B00121480500F02CF90E
:1005D000164800900020ADF804004BF6FF70ADF80F
:1005E00006000020ADF80800ADF80A004FF4804086
:1005F000ADF80C0069460E48FFF746FF01210C4894
:10060000FFF700FF0121092000F01EF9C020ADF81E
:10061000100002208DF812001C208DF8130004A990
:100620000448FFF7ECFD05B000BD0000A086010006
:1006300000540040000C014070B505460021012027
:1006400000F07AF800240AE0A5F1200000EB800019
:10065000064A1044015D012000F06EF8641C052C70
:10066000F2D30021012000F067F870BD7416000875
:1006700010B5002404E00021012000F05DF8641CA6
:10068000B4F5FC7FF7D30021084600F09FFD10BDB4
:1006900070B504460D46164600F06EF801211E485E
:1006A000FFF78BFE02211C48FFF787FE4FF4005135
:1006B0001A48FFF782FE4FF400411848FFF77DFE0D
:1006C0004FF480411548FFF778FE01211248FFF7EB
:1006D00072FE01211048FFF770FE2121002000F07A
:1006E0002BF804F18000C1B2002000F025F8281D8D
:1006F000C1B2002000F020F806F11000C1B20020C5
:1007000000F01AF82021002000F016F80C2100203B
:1007100000F012F870BD0000000C01400010014014
:1007200010B5044603E014F8010BFFF785FF2078AD
:100730000028F8D110BD000070B505460C462DB15B
:100740004FF400510A48FFF738FE04E04FF400511F
:100750000748FFF730FE02210648FFF72CFE20462F
:1007600000F0E8FE02210348FFF727FE70BD0000FD
:1007700000100140000C014008B50121192000F0D3
:1007800063F80120ADF8000003208DF8020010206E
:100790008DF8030069461F48FFF731FD0220ADF8D0
:1007A000000003208DF8020010208DF80300694638
:1007B0001848FFF724FD4FF40050ADF80000032067
:1007C0008DF8020010208DF8030069461248FFF7EB
:1007D00016FD4FF48040ADF8000003208DF80200B4
:1007E00010208DF8030069460B48FFF708FD4FF411
:1007F0000040ADF8000003208DF8020010208DF8B5
:10080000030069460448FFF7FAFC01210348FFF79B
:1008100081FD08BD000C01400010014000023000C5
:1008200000BFFEE77047704729B1064AD26902430C
:10083000044BDA6104E0034AD2698243014BDA6176
:10084000704700000010024029B1064A9269024335
:10085000044B9A6104E0034A92698243014B9A6116
:10086000704700000010024030B500210022002433
:1008700000232D4D6D6805F00C0121B1042905D030
:10088000082923D105E0294D056022E0274D0560A8
:100890001FE0254D6D6805F47012234D6D6805F459
:1008A0008034022505EB92421CB9214D5543056069
:1008B0000BE01D4D6D6805F400351DB11C4D554311
:1008C000056002E0194D5543056002E0174D0560D3
:1008D00000BF00BF144D6D6805F0F0010909154D0A
:1008E0006B5C0568DD4045600F4D6D6805F4E061A7
:1008F000090A104D6B5C4568DD4085600A4D6D68E6
:1009000005F46051C90A0B4D6B5C4568DD40C5605C
:10091000054D6D6805F44041890B074D6B5CC5685A
:10092000B5FBF3F5056130BD0010024000127A00FE
:1009300000093D000000002010000020704710B5A5
:1009400000F002F810BD00000CB5002001900090EE
:100950003348006840F480303149086000BF3048B7
:10096000006800F4003000900198401C019000984D
:1009700018B90198B0F5A06FF1D12948006800F4CA
:10098000003010B10120009001E00020009000989C
:10099000012843D12348006840F010002149086035
:1009A0000846006820F0030008600846006840F030
:1009B000020008601A4840681949486008464068C3
:1009C00048600846406840F48060486008464068D7
:1009D00020F47C1048600846406840F4E810486005
:1009E0000846006840F08070086000BF0C4800684E
:1009F00000F000700028F9D00948406820F003009A
:100A0000074948600846406840F00200486000BF5F
:100A10000348406800F00C000828F9D10CBD000024
:100A200000100240002002407047000010B513483B
:100A3000006840F00100114908600846406810490C
:100A400008400E494860084600680E4908400B49B6
:100A500008600846006820F4802008600846406866
:100A600020F4FE0048604FF41F008860FFF767FF26
:100A70004FF000600449086010BD00000010024003
:100A80000000FFF8FFFFF6FE08ED00E010B50121C1
:100A9000880700F04EF800283AD020480068401C33
:100AA0001E490860B0F57A7F32D91D480068B0B998
:100AB0004FF400611B48FFF780FC4FF48051194848
:100AC000FFF77BFC20211848FFF777FC4FF480717B
:100AD0001548FFF772FC01201149086015E04FF43A
:100AE00000611048FFF767FC4FF480510D48FFF795
:100AF00062FC20210C48FFF75EFC4FF480710A482D
:100B0000FFF759FC002006490860002003490860EF
:100B10000121880700F00AF810BD00004400002001
:100B20004000002000080140000C0140CA4302823E
:100B3000704730B50246002000230024158A05EADC
:100B40000103958905EA010413B10CB1012000E00D
:100B5000002030BD00BFFEE70FB4084B10B504A95C
:100B600002AA039800F01CF8044602A9002000F035
:100B7000B8F9204610BC5DF814FB0000E30E000835
:100B800002E008C8121F08C1002AFAD17047704756
:100B9000002001E001C1121F002AFBD170470000B4
:100BA0002DE9FF4F8BB088460546002606E0252834
:100BB0000BD0DDE90D1290476D1C761C28780028BB
:100BC000F5D10FB03046BDE8F08F0024A146A24613
:100BD0000122AE4900E0044315F8013F203B02FA30
:100BE00003F00842F7D128782A2810D06FF02F029E
:100BF0002878A0F13001092915D809EB890102EB09
:100C0000410144F0020400EB01096D1CF0E758F8C3
:100C1000041B5FEA010903D544F40054C9F100093B
:100C200044F002046D1C28782E2817D115F8010F06
:100C300044F004042A280ED06FF02F022878A0F187
:100C4000300109290AD80AEB8A0102EB410100EBC5
:100C5000010A6D1CF2E758F804AB6D1C28786C286B
:100C60000FD006DC4C2817D068280DD06A2814D184
:100C700004E0742810D07A280FD10DE044F4001459
:100C80000AE044F4801401E044F44014697881429D
:100C900002D104F580146D1C6D1C2878692865D07C
:100CA00006DC00288DD0632827D0642806D15DE0BB
:100CB0006E2808D073282AD0752877D0DDE90D1268
:100CC0009047761CE0E0C4F30250022809D00328C4
:100CD0000DD0D8F8001004280DD00E6008F10408DB
:100CE000D2E0D8F80010F217C1E90062F6E7D8F8B0
:100CF00000100E80F2E70E70F0E718F8041B8DF874
:100D0000001000208DF80100EB46012003E058F8A8
:100D100004BB4FF0FF3061074FF0000701D40AE039
:100D20007F1C57450DDA8742FADB1BF807100029B4
:100D3000F6D106E07F1C8742FCDB1BF80710002978
:100D4000F8D1DDE90D23A9EB07008146214600F02B
:100D5000B1F83044C61904E0DDE90D121BF8010BAF
:100D600090477F1EF8D22146484688E058F8040B89
:100D7000C4F302514FF00A0B032900D100B2042939
:100D800000D140B2002802DA40422D2102E02105C4
:100D900005D52B218DF82410012104E006E0E107A0
:100DA00010D02021F6E708AF089113E058F8040BA3
:100DB000C4F302514FF00A0B032900D180B2042979
:100DC00000D1C0B20021EEE75946FFF7ABF9303150
:100DD00007F8011D0028F7D1ADEB070000F1200B4B
:100DE000600702D524F4803401E04FF0010ADA45AF
:100DF00002DDAAEB0B0000E00020824600EB0B01B5
:100E000008980144A9EB01000A90E00306D4DDE94B
:100E10000D2321460A9800F04DF806444FF00009D2
:100E200008E009A911F80900DDE90D12904709F160
:100E30000109761C08998945F3DBE0030CD5DDE94F
:100E40000D2321460A9800F035F8064404E0DDE958
:100E50000D1230209047761CBAF10001AAF1010A68
:100E6000F5DC05E0DDE90D1217F8010B9047761C63
:100E7000BBF10001ABF1010BF4DC0A982146DDE97E
:100E80000D2300F005F806446D1C97E609280100C3
:100E90002DE9F041044600251E461746880404D477
:100EA00005E039462020B0476D1C641EF9D5284660
:100EB000BDE8F0812DE9F041044600251E4690462C
:100EC000C80301D5302700E02027880404D505E0B9
:100ED00041463846B0476D1C641EF9D52846BDE82A
:100EE000F0810A68531C0B601070704701460A11AC
:100EF00002EB8202500001F00F020244D0B27047B0
:100F000001460A2091FBF0F0C2B202EB8200A1EB95
:100F10004000C3B243EA0210C0B2704703468B429E
:100F200001DA08467047934201DD1046FAE7184699
:100F3000F8E700004FF0E021096921F004014FF0CB
:100F4000E0221161C21700EB5272C2F3C702074BD5
:100F50001A701946097801EB4102C2EBC1114FF634
:100F6000FF7202EAC101024A118070474800002066
:100F70004A00002001460D4A12884A434FF0E02300
:100F80005A6100229A6101221A6100BF4FF0E022EB
:100F9000106900F001021AB100F48032002AF5D085
:100FA00000224FF0E0231A619A6170474A00002046
:100FB00010B5FFF707FB10BD2DE9F04104460D46C3
:100FC00016461F4600F017F8207000F009F8287048
:100FD00000F034F8307000F055F83870BDE8F0815A
:100FE00008B56A460421682000F022F99DF8000047
:100FF000FFF77CFF08BD08B56A460321682000F0B2
:1010000017F99DF80000FFF771FF08BD08B56A46A3
:101010000221682000F00CF99DF8001001F03F005B
:10102000FFF764FF08BD08B56A460121682000F09B
:10103000FFF89DF80000FFF759FF08BD08B56A46A4
:101040000521682000F0F4F89DF80000FFF74EFF3E
:1010500008BD08B56A460021682000F0E9F89DF84F
:101060000000FFF743FF08BD70B504460D46164665
:10107000FFF7CCFF2070FFF7D6FF2870FFF7E9FFDE
:10108000307070BD08B56A460621682000F0D0F8BF
:101090009DF80000FFF72AFF08BD2DE9F041074643
:1010A0000C4615461E46384600F01CF8204600F057
:1010B00008F8284600F049F8304600F076F8BDE818
:1010C000F08170B504461F2201212046FFF726FF5C
:1010D0000646FFF715FF05462A460421682000F062
:1010E0000DF970BD70B50446072201212046FFF7B7
:1010F00015FF0646FFF704FF05462A460321682030
:1011000000F0FCF870BD70B504461722002120469F
:10111000FFF704FF0646FFF7F3FE05462A460221C5
:10112000682000F0EBF870BD70B504463B2200214A
:101130002046FFF7F3FE0646FFF7E2FE05462A4685
:101140000121682000F0DAF870BD70B504460C2269
:1011500001212046FFF7E2FE0646FFF7D1FE0546D5
:101160002A460521682000F0C9F870BD70B5044614
:101170003B2200212046FFF7D1FE0646FFF7C0FEC6
:1011800005462A460021682000F0B8F870BD70B509
:1011900006460C4615463046FFF7B5FF2046FFF7DA
:1011A000C3FF2846FFF7E2FF70BD70B50446632217
:1011B00000212046FFF7B2FE0646FFF7A1FE0546D6
:1011C0002A460621682000F099F870BD70B50446E3
:1011D0000D46E0B240F080010020FFF7ADFAE8B222
:1011E00040F040010020FFF7A7FA70BD70B505463A
:1011F0000C46224629460B48FFF7C0F93CB900BF10
:1012000009490848FFF7E9F80028F9D008E0012C5F
:1012100006D100BF05490348FFF7DFF80028F9D0E1
:1012200070BD00000054004082000700020003006F
:1012300070B504460D46164600F02CF86106080EFF
:101240000021FFF7D3FF284600F046F800F03CF8F5
:1012500000F020F86106080E0121FFF7C7FF00F03B
:1012600005F8307000F030F870BD000010B50021B6
:101270000648FFF7A6F800BF05490448FFF7ADF898
:101280000028F9D00148FFF775F910BD005400405F
:101290004000030010B500BF4FF400310848FFF7CD
:1012A000D5F80028F8D101210548FFF7B7F800BFAD
:1012B00004490348FFF791F80028F9D010BD000059
:1012C000005400400100030010B501210148FFF760
:1012D000B1F810BD0054004010B504462146054841
:1012E000FFF755F900BF04490248FFF776F80028D8
:1012F000F9D010BD005400408400070070B50446CA
:101300000D461646FFF7C6FF6106080E0021FFF7DF
:101310006DFF2846FFF7E0FF3046FFF7DDFFFFF7E0
:10132000D3FF70BD04234FF4A07269491846FFF73C
:1013300030F910231A4666490420FFF72AF9FFF70F
:1013400075FB4820FFF7F6FDFFF716FA0022012192
:101350005520FFF79DF9FFF78BF9FFF729FE0022D3
:1013600011461520FFF713FF172303221321012035
:10137000FFF793FE00210846FFF728FF55A0FFF76F
:10138000CFF903210020FFF721FF55A0FFF7C8F98F
:101390009DE000F0FDF804210020FFF717FF5348FF
:1013A00053A102685548FFF7D7FB5448FFF7B8F937
:1013B00005210020FFF70AFF514852A102684F485B
:1013C000FFF7CAFB4D48FFF7ABF908214048FEF78D
:1013D000E9FF60B945480068401C444908604C4832
:1013E00000784C4908604C4800784C4908603F48F8
:1013F00000683C280FDB3D4800683C383B490860EA
:101400003F480068401C3E490860084600681828AC
:1014100001D1172008604FF480712D48FEF7C2FFFC
:1014200060B932480068401E30490860384800788A
:101430003849086038480078384908602B48006807
:1014400000280DDA3B20294908602D480068401E1D
:101450002B49086008460068002801DA002008606F
:10146000FA20FFF787FD2148006810B9244800687A
:1014700030B103210020FFF7A9FE29A0FFF750F9A2
:101480002448006819490968084428490860234825
:1014900000681B490968084425490860234800681A
:1014A0003C2809DB214800683C3820490860204876
:1014B0000068401C1E4908601D480068182804DBAD
:1014C0001A480068183819490860FEF753FE60E7AB
:1014D00000080140207E4D7920436C6F636B7E00D5
:1014E00054696D65723A204F464600002400002082
:1014F000506875743D202564286D29006000002027
:101500002000002047696F3D2025642868290000DD
:101510001D0000202C0000201C00002030000020B6
:1015200054696D65723A204F4E200000340000204F
:101530003800002070B504464FF400411348FEF710
:101540003AFF4FF480411148FEF737FF08251AE0B3
:1015500004F08000802804D1C1010C48FEF72DFF63
:1015600004E04FF480410948FEF725FF4FF40041A5
:101570000648FEF722FF4FF400410448FEF71BFF28
:101580006006040E6D1E002DE2D170BD00100140FA
:1015900010B5294B294A2A492A48FFF70DFD2A4A46
:1015A0002A492B48FFF760FD2648027829A12B48DD
:1015B000FFF7D2FA01210020FFF708FE2748FFF7C6
:1015C000AFF81F48027826A12448FFF7C5FA234840
:1015D000FFF7A6F81948027821A12048FFF7BCFAC6
:1015E0001E48FFF79DF8144802781FA11B48FFF71B
:1015F000B3FA1A48FFF794F8154802781BA1174868
:10160000FFF7AAFA02210020FFF7E0FD1348FFF7D9
:1016100087F80E48027812A11048FFF79DFA0F488C
:10162000FFF77EF8084802780FA10C48FFF794FAFC
:101630000A48FFF775F810BD1B0000201A000020B3
:1016400019000020180000201E0000201D000020AE
:101650001C000020542025753A0000004C0000209A
:101660002532753A00000000253275002020253211
:10167000753A0000000000000000005F0000000755
:10168000000700147F147F14242A7F2A12231308D2
:10169000646236495522500005030000001C2241B7
:1016A000000041221C0014083E081408083E0808E7
:1016B00000503000000808080808006060000020A2
:1016C000100804023E5149453E00427F40004261FD
:1016D0005149462141454B311814127F1027454589
:1016E00045393C4A494930017109050336494949A0
:1016F00036064949291E00363600000056360000DD
:101700000814224100141414141400412214080275
:1017100001510906324979413E7E1111117E7F49FE
:101720004949363E414141227F4141221C7F49497E
:1017300049417F090909013E4149497A7F08080862
:101740007F00417F41002040413F017F081422413A
:101750007F404040407F020C027F7F0408107F3EA4
:101760004141413E7F090909063E4151215E7F0901
:10177000192946464949493101017F01013F40404D
:10178000403F1F2040201F3F4038403F6314081453
:101790006307087008076151494543007F414100D4
:1017A00002040810200041417F00040201020440AD
:1017B00040404040000102040020545454787F48C7
:1017C0004444383844444420384444487F385454CE
:1017D0005418087E0901020C5252523E7F0804043C
:1017E0007800447D40002040443D007F10284400A4
:1017F00000417F40007C041804787C080404783899
:10180000444444387C14141408081414187C7C08CC
:101810000404084854545420043F4440203C4040B1
:10182000207C1C2040201C3C4030403C4428102898
:10183000440C5050503C4464544C44000836410021
:1018400000007F00000041360800100808100878EA
:101850004641467874180008000000204C00000043
:10186000800B0008C01800084C0000203C04000059
:10187000900B0008000000000102030401020304B1
:101880000607080902040608000000000000000026
:101890000000000000000000000000000500000043
:1018A0000000000000000000000000000000000038
:1018B0000000000000000000000000000000000028
:04000005080000ED02
:00000001FF
